{
  "_format": "hh-sol-artifact-1",
  "contractName": "SupplyChain",
  "sourceName": "contracts/SupplyChain.sol",
  "abi": [
    {
      "anonymous": false,
      "inputs": [
        {
          "indexed": true,
          "internalType": "uint256",
          "name": "shipId",
          "type": "uint256"
        },
        {
          "indexed": false,
          "internalType": "string",
          "name": "shState",
          "type": "string"
        },
        {
          "indexed": false,
          "internalType": "uint256",
          "name": "times",
          "type": "uint256"
        }
      ],
      "name": "processChange",
      "type": "event"
    },
    {
      "anonymous": false,
      "inputs": [
        {
          "indexed": true,
          "internalType": "uint256",
          "name": "shipId",
          "type": "uint256"
        },
        {
          "indexed": true,
          "internalType": "enum SupplyChain.Status",
          "name": "pay",
          "type": "uint8"
        },
        {
          "indexed": false,
          "internalType": "uint256",
          "name": "times",
          "type": "uint256"
        }
      ],
      "name": "processPay",
      "type": "event"
    },
    {
      "inputs": [
        {
          "internalType": "uint256",
          "name": "",
          "type": "uint256"
        }
      ],
      "name": "AdminAadhars",
      "outputs": [
        {
          "internalType": "uint256",
          "name": "adminId",
          "type": "uint256"
        },
        {
          "internalType": "string",
          "name": "adminName",
          "type": "string"
        },
        {
          "internalType": "uint256",
          "name": "adminAadharNo",
          "type": "uint256"
        },
        {
          "internalType": "address",
          "name": "adminAddr",
          "type": "address"
        },
        {
          "internalType": "string",
          "name": "role",
          "type": "string"
        }
      ],
      "stateMutability": "view",
      "type": "function"
    },
    {
      "inputs": [
        {
          "internalType": "uint256",
          "name": "",
          "type": "uint256"
        }
      ],
      "name": "AdminIds",
      "outputs": [
        {
          "internalType": "address",
          "name": "",
          "type": "address"
        }
      ],
      "stateMutability": "view",
      "type": "function"
    },
    {
      "inputs": [
        {
          "internalType": "address",
          "name": "",
          "type": "address"
        }
      ],
      "name": "Admins",
      "outputs": [
        {
          "internalType": "uint256",
          "name": "adminId",
          "type": "uint256"
        },
        {
          "internalType": "string",
          "name": "adminName",
          "type": "string"
        },
        {
          "internalType": "uint256",
          "name": "adminAadharNo",
          "type": "uint256"
        },
        {
          "internalType": "address",
          "name": "adminAddr",
          "type": "address"
        },
        {
          "internalType": "string",
          "name": "role",
          "type": "string"
        }
      ],
      "stateMutability": "view",
      "type": "function"
    },
    {
      "inputs": [
        {
          "internalType": "uint256",
          "name": "",
          "type": "uint256"
        }
      ],
      "name": "Items",
      "outputs": [
        {
          "internalType": "uint256",
          "name": "itemId",
          "type": "uint256"
        },
        {
          "internalType": "uint256",
          "name": "shipmentId",
          "type": "uint256"
        },
        {
          "internalType": "address",
          "name": "maddress",
          "type": "address"
        },
        {
          "internalType": "address",
          "name": "caddress",
          "type": "address"
        },
        {
          "internalType": "string",
          "name": "description",
          "type": "string"
        },
        {
          "internalType": "uint256",
          "name": "price",
          "type": "uint256"
        }
      ],
      "stateMutability": "view",
      "type": "function"
    },
    {
      "inputs": [
        {
          "internalType": "uint256",
          "name": "",
          "type": "uint256"
        }
      ],
      "name": "Shipments",
      "outputs": [
        {
          "internalType": "uint256",
          "name": "shipmentId",
          "type": "uint256"
        },
        {
          "internalType": "uint256",
          "name": "totalAmt",
          "type": "uint256"
        },
        {
          "internalType": "enum SupplyChain.Status",
          "name": "payment",
          "type": "uint8"
        },
        {
          "internalType": "address",
          "name": "caddress",
          "type": "address"
        },
        {
          "internalType": "address",
          "name": "maddress",
          "type": "address"
        }
      ],
      "stateMutability": "view",
      "type": "function"
    },
    {
      "inputs": [
        {
          "internalType": "uint256",
          "name": "",
          "type": "uint256"
        }
      ],
      "name": "User_Aadhars",
      "outputs": [
        {
          "internalType": "uint256",
          "name": "userId",
          "type": "uint256"
        },
        {
          "internalType": "string",
          "name": "userName",
          "type": "string"
        },
        {
          "internalType": "uint256",
          "name": "aadharNo",
          "type": "uint256"
        },
        {
          "internalType": "address payable",
          "name": "addr",
          "type": "address"
        },
        {
          "internalType": "uint256",
          "name": "pincode",
          "type": "uint256"
        },
        {
          "internalType": "string",
          "name": "role",
          "type": "string"
        }
      ],
      "stateMutability": "view",
      "type": "function"
    },
    {
      "inputs": [
        {
          "internalType": "uint256",
          "name": "",
          "type": "uint256"
        }
      ],
      "name": "User_Ids",
      "outputs": [
        {
          "internalType": "uint256",
          "name": "userId",
          "type": "uint256"
        },
        {
          "internalType": "string",
          "name": "userName",
          "type": "string"
        },
        {
          "internalType": "uint256",
          "name": "aadharNo",
          "type": "uint256"
        },
        {
          "internalType": "address payable",
          "name": "addr",
          "type": "address"
        },
        {
          "internalType": "uint256",
          "name": "pincode",
          "type": "uint256"
        },
        {
          "internalType": "string",
          "name": "role",
          "type": "string"
        }
      ],
      "stateMutability": "view",
      "type": "function"
    },
    {
      "inputs": [
        {
          "internalType": "address",
          "name": "",
          "type": "address"
        }
      ],
      "name": "Users",
      "outputs": [
        {
          "internalType": "uint256",
          "name": "userId",
          "type": "uint256"
        },
        {
          "internalType": "string",
          "name": "userName",
          "type": "string"
        },
        {
          "internalType": "uint256",
          "name": "aadharNo",
          "type": "uint256"
        },
        {
          "internalType": "address payable",
          "name": "addr",
          "type": "address"
        },
        {
          "internalType": "uint256",
          "name": "pincode",
          "type": "uint256"
        },
        {
          "internalType": "string",
          "name": "role",
          "type": "string"
        }
      ],
      "stateMutability": "view",
      "type": "function"
    },
    {
      "inputs": [
        {
          "internalType": "string",
          "name": "_name",
          "type": "string"
        },
        {
          "internalType": "uint256",
          "name": "_adminAadharno",
          "type": "uint256"
        },
        {
          "internalType": "string",
          "name": "_role",
          "type": "string"
        }
      ],
      "name": "addAdmin",
      "outputs": [
        {
          "internalType": "uint256",
          "name": "",
          "type": "uint256"
        }
      ],
      "stateMutability": "nonpayable",
      "type": "function"
    },
    {
      "inputs": [
        {
          "internalType": "string",
          "name": "_name",
          "type": "string"
        },
        {
          "internalType": "uint256",
          "name": "_aadharNo",
          "type": "uint256"
        },
        {
          "internalType": "uint256",
          "name": "_pincode",
          "type": "uint256"
        },
        {
          "internalType": "string",
          "name": "_role",
          "type": "string"
        }
      ],
      "name": "addUser",
      "outputs": [
        {
          "internalType": "uint256",
          "name": "",
          "type": "uint256"
        }
      ],
      "stateMutability": "nonpayable",
      "type": "function"
    },
    {
      "inputs": [],
      "name": "adminCount",
      "outputs": [
        {
          "internalType": "uint256",
          "name": "",
          "type": "uint256"
        }
      ],
      "stateMutability": "view",
      "type": "function"
    },
    {
      "inputs": [
        {
          "internalType": "string",
          "name": "a",
          "type": "string"
        },
        {
          "internalType": "string",
          "name": "b",
          "type": "string"
        }
      ],
      "name": "compareStrings",
      "outputs": [
        {
          "internalType": "bool",
          "name": "",
          "type": "bool"
        }
      ],
      "stateMutability": "pure",
      "type": "function"
    },
    {
      "inputs": [
        {
          "internalType": "string",
          "name": "_description",
          "type": "string"
        },
        {
          "internalType": "uint256",
          "name": "_price",
          "type": "uint256"
        }
      ],
      "name": "createItems",
      "outputs": [
        {
          "internalType": "uint256",
          "name": "",
          "type": "uint256"
        }
      ],
      "stateMutability": "nonpayable",
      "type": "function"
    },
    {
      "inputs": [
        {
          "internalType": "uint256",
          "name": "_itemId",
          "type": "uint256"
        },
        {
          "internalType": "string",
          "name": "_shipstatus",
          "type": "string"
        },
        {
          "internalType": "uint256",
          "name": "_totalAmt",
          "type": "uint256"
        },
        {
          "internalType": "enum SupplyChain.Status",
          "name": "_payment",
          "type": "uint8"
        }
      ],
      "name": "createShipment",
      "outputs": [],
      "stateMutability": "nonpayable",
      "type": "function"
    },
    {
      "inputs": [
        {
          "internalType": "uint256",
          "name": "_shipid",
          "type": "uint256"
        }
      ],
      "name": "getPaymentStatus",
      "outputs": [
        {
          "internalType": "enum SupplyChain.Status",
          "name": "",
          "type": "uint8"
        }
      ],
      "stateMutability": "view",
      "type": "function"
    },
    {
      "inputs": [
        {
          "internalType": "uint256",
          "name": "_shipid",
          "type": "uint256"
        }
      ],
      "name": "getShipmentStatus",
      "outputs": [
        {
          "internalType": "string[]",
          "name": "",
          "type": "string[]"
        }
      ],
      "stateMutability": "view",
      "type": "function"
    },
    {
      "inputs": [
        {
          "internalType": "address",
          "name": "addr",
          "type": "address"
        }
      ],
      "name": "getbal",
      "outputs": [
        {
          "internalType": "uint256",
          "name": "",
          "type": "uint256"
        }
      ],
      "stateMutability": "view",
      "type": "function"
    },
    {
      "inputs": [],
      "name": "itemCount",
      "outputs": [
        {
          "internalType": "uint256",
          "name": "",
          "type": "uint256"
        }
      ],
      "stateMutability": "view",
      "type": "function"
    },
    {
      "inputs": [
        {
          "internalType": "uint256",
          "name": "_totAmt",
          "type": "uint256"
        },
        {
          "internalType": "uint256",
          "name": "_shipmentId",
          "type": "uint256"
        },
        {
          "internalType": "string",
          "name": "_shipStatus",
          "type": "string"
        }
      ],
      "name": "payitem",
      "outputs": [],
      "stateMutability": "payable",
      "type": "function"
    },
    {
      "inputs": [],
      "name": "shipmentCount",
      "outputs": [
        {
          "internalType": "uint256",
          "name": "",
          "type": "uint256"
        }
      ],
      "stateMutability": "view",
      "type": "function"
    },
    {
      "inputs": [
        {
          "internalType": "uint256",
          "name": "_itemId",
          "type": "uint256"
        },
        {
          "internalType": "uint256",
          "name": "_shipId",
          "type": "uint256"
        },
        {
          "internalType": "address",
          "name": "_caddress",
          "type": "address"
        }
      ],
      "name": "updateItem",
      "outputs": [],
      "stateMutability": "nonpayable",
      "type": "function"
    },
    {
      "inputs": [
        {
          "internalType": "uint256",
          "name": "_shipId",
          "type": "uint256"
        },
        {
          "internalType": "string",
          "name": "_shipStatus",
          "type": "string"
        }
      ],
      "name": "updateShstate",
      "outputs": [],
      "stateMutability": "nonpayable",
      "type": "function"
    },
    {
      "inputs": [
        {
          "internalType": "uint256",
          "name": "_shipId",
          "type": "uint256"
        },
        {
          "internalType": "enum SupplyChain.Status",
          "name": "_payment",
          "type": "uint8"
        }
      ],
      "name": "updateShstatus",
      "outputs": [],
      "stateMutability": "nonpayable",
      "type": "function"
    },
    {
      "inputs": [],
      "name": "userCount",
      "outputs": [
        {
          "internalType": "uint256",
          "name": "",
          "type": "uint256"
        }
      ],
      "stateMutability": "view",
      "type": "function"
    },
    {
      "inputs": [
        {
          "internalType": "uint256",
          "name": "_shipmentId",
          "type": "uint256"
        },
        {
          "internalType": "uint256",
          "name": "z",
          "type": "uint256"
        }
      ],
      "name": "withdrawMoney",
      "outputs": [],
      "stateMutability": "payable",
      "type": "function"
    }
  ],
  "bytecode": "0x60806040526000805560006001556000600255600060035534801561002357600080fd5b50613fb7806100336000396000f3fe6080604052600436106101655760003560e01c806371a789b3116100d1578063a5baabc21161008a578063bf934a9011610064578063bf934a90146105e6578063e2c159a71461060f578063ee21259d1461062b578063eedefb881461066857610165565b8063a5baabc214610555578063aace20b71461057e578063bed34bba146105a957610165565b806371a789b3146103fa5780637f77a8d51461043c5780638422d07b1461047957806394ef61ab1461049557806399b956a0146104d6578063a16500431461051857610165565b8063190dd27711610123578063190dd277146102bf5780631a0e1d9d146102fc5780631b3eee4a1461033e5780632b7832b31461037b5780633939a75c146103a65780636bfb0d01146103cf57610165565b8062410e531461016a57806307973ccf146101a757806308311413146101d25780630dae7f3c146101fb5780630ec6d58a1461023c57806317b47cc41461027d575b600080fd5b34801561017657600080fd5b50610191600480360381019061018c9190613169565b6106a5565b60405161019e9190613217565b60405180910390f35b3480156101b357600080fd5b506101bc610e32565b6040516101c99190613217565b60405180910390f35b3480156101de57600080fd5b506101f960048036038101906101f49190613232565b610e38565b005b34801561020757600080fd5b50610222600480360381019061021d919061328e565b6110b0565b60405161023395949392919061337b565b60405180910390f35b34801561024857600080fd5b50610263600480360381019061025e9190613408565b611216565b60405161027495949392919061337b565b60405180910390f35b34801561028957600080fd5b506102a4600480360381019061029f919061328e565b61137c565b6040516102b696959493929190613435565b60405180910390f35b3480156102cb57600080fd5b506102e660048036038101906102e19190613408565b611480565b6040516102f39190613217565b60405180910390f35b34801561030857600080fd5b50610323600480360381019061031e919061328e565b6114a1565b604051610335969594939291906134be565b60405180910390f35b34801561034a57600080fd5b506103656004803603810190610360919061328e565b61160d565b604051610372919061352d565b60405180910390f35b34801561038757600080fd5b50610390611640565b60405161039d9190613217565b60405180910390f35b3480156103b257600080fd5b506103cd60048036038101906103c8919061356d565b611646565b005b3480156103db57600080fd5b506103e4611942565b6040516103f19190613217565b60405180910390f35b34801561040657600080fd5b50610421600480360381019061041c919061328e565b611948565b604051610433969594939291906134be565b60405180910390f35b34801561044857600080fd5b50610463600480360381019061045e91906135f0565b611ab4565b6040516104709190613217565b60405180910390f35b610493600480360381019061048e919061364c565b611c14565b005b3480156104a157600080fd5b506104bc60048036038101906104b7919061328e565b612050565b6040516104cd959493929190613703565b60405180910390f35b3480156104e257600080fd5b506104fd60048036038101906104f89190613408565b6120d3565b60405161050f969594939291906134be565b60405180910390f35b34801561052457600080fd5b5061053f600480360381019061053a919061328e565b61223f565b60405161054c9190613756565b60405180910390f35b34801561056157600080fd5b5061057c60048036038101906105779190613771565b61226c565b005b34801561058a57600080fd5b5061059361250b565b6040516105a09190613217565b60405180910390f35b3480156105b557600080fd5b506105d060048036038101906105cb91906137c4565b612511565b6040516105dd9190613857565b60405180910390f35b3480156105f257600080fd5b5061060d60048036038101906106089190613872565b61256a565b005b610629600480360381019061062491906138b2565b6125f9565b005b34801561063757600080fd5b50610652600480360381019061064d919061328e565b61274f565b60405161065f9190613a2d565b60405180910390f35b34801561067457600080fd5b5061068f600480360381019061068a9190613a4f565b61283e565b60405161069c9190613217565b60405180910390f35b600080600760003373ffffffffffffffffffffffffffffffffffffffff1673ffffffffffffffffffffffffffffffffffffffff16815260200190815260200160002060030160009054906101000a900473ffffffffffffffffffffffffffffffffffffffff169050600073ffffffffffffffffffffffffffffffffffffffff168173ffffffffffffffffffffffffffffffffffffffff16036109fb57610749612d98565b60008081548092919061075b90613b09565b919050555060005481600001818152505086816020018190525033816060019073ffffffffffffffffffffffffffffffffffffffff16908173ffffffffffffffffffffffffffffffffffffffff168152505084816080018181525050838160a001819052508581604001818152505080600760003373ffffffffffffffffffffffffffffffffffffffff1673ffffffffffffffffffffffffffffffffffffffff1681526020019081526020016000206000820151816000015560208201518160010190816108299190613d5d565b506040820151816002015560608201518160030160006101000a81548173ffffffffffffffffffffffffffffffffffffffff021916908373ffffffffffffffffffffffffffffffffffffffff1602179055506080820151816004015560a082015181600501908161089a9190613d5d565b509050508060086000805481526020019081526020016000206000820151816000015560208201518160010190816108d29190613d5d565b506040820151816002015560608201518160030160006101000a81548173ffffffffffffffffffffffffffffffffffffffff021916908373ffffffffffffffffffffffffffffffffffffffff1602179055506080820151816004015560a08201518160050190816109439190613d5d565b50905050806009600088815260200190815260200160002060008201518160000155602082015181600101908161097a9190613d5d565b506040820151816002015560608201518160030160006101000a81548173ffffffffffffffffffffffffffffffffffffffff021916908373ffffffffffffffffffffffffffffffffffffffff1602179055506080820151816004015560a08201518160050190816109eb9190613d5d565b5090505060005492505050610e2a565b6000600760003373ffffffffffffffffffffffffffffffffffffffff1673ffffffffffffffffffffffffffffffffffffffff1681526020019081526020016000206040518060c001604052908160008201548152602001600182018054610a6190613b80565b80601f0160208091040260200160405190810160405280929190818152602001828054610a8d90613b80565b8015610ada5780601f10610aaf57610100808354040283529160200191610ada565b820191906000526020600020905b815481529060010190602001808311610abd57829003601f168201915b50505050508152602001600282015481526020016003820160009054906101000a900473ffffffffffffffffffffffffffffffffffffffff1673ffffffffffffffffffffffffffffffffffffffff1673ffffffffffffffffffffffffffffffffffffffff16815260200160048201548152602001600582018054610b5d90613b80565b80601f0160208091040260200160405190810160405280929190818152602001828054610b8990613b80565b8015610bd65780601f10610bab57610100808354040283529160200191610bd6565b820191906000526020600020905b815481529060010190602001808311610bb957829003601f168201915b505050505081525050905086816020018190525084816080018181525050838160a0018190525080600760003373ffffffffffffffffffffffffffffffffffffffff1673ffffffffffffffffffffffffffffffffffffffff168152602001908152602001600020600082015181600001556020820151816001019081610c5c9190613d5d565b506040820151816002015560608201518160030160006101000a81548173ffffffffffffffffffffffffffffffffffffffff021916908373ffffffffffffffffffffffffffffffffffffffff1602179055506080820151816004015560a0820151816005019081610ccd9190613d5d565b50905050806008600080548152602001908152602001600020600082015181600001556020820151816001019081610d059190613d5d565b506040820151816002015560608201518160030160006101000a81548173ffffffffffffffffffffffffffffffffffffffff021916908373ffffffffffffffffffffffffffffffffffffffff1602179055506080820151816004015560a0820151816005019081610d769190613d5d565b509050508060096000888152602001908152602001600020600082015181600001556020820151816001019081610dad9190613d5d565b506040820151816002015560608201518160030160006101000a81548173ffffffffffffffffffffffffffffffffffffffff021916908373ffffffffffffffffffffffffffffffffffffffff1602179055506080820151816004015560a0820151816005019081610e1e9190613d5d565b50905050600054925050505b949350505050565b60005481565b610e77816040518060400160405280600981526020017f43616e63656c6c65640000000000000000000000000000000000000000000000815250612511565b15610f0057600b600083815260200190815260200160002060010181908060018154018082558091505060019003906000526020600020016000909190919091509081610ec49190613d5d565b50817f4687f3121d2d2f3cbf4c5b377825b06af8b3f39ba92dedb00980c611106974938242604051610ef7929190613e2f565b60405180910390a25b6000600b6000848152602001908152602001600020600101805490509050611023600b6000858152602001908152602001600020600101600183610f449190613e5f565b81548110610f5557610f54613e93565b5b906000526020600020018054610f6a90613b80565b80601f0160208091040260200160405190810160405280929190818152602001828054610f9690613b80565b8015610fe35780601f10610fb857610100808354040283529160200191610fe3565b820191906000526020600020905b815481529060010190602001808311610fc657829003601f168201915b50505050506040518060400160405280600981526020017f43616e63656c6c65640000000000000000000000000000000000000000000000815250612511565b6110ab57600b60008481526020019081526020016000206001018290806001815401808255809150506001900390600052602060002001600090919091909150908161106f9190613d5d565b50827f4687f3121d2d2f3cbf4c5b377825b06af8b3f39ba92dedb00980c6111069749383426040516110a2929190613e2f565b60405180910390a25b505050565b60066020528060005260406000206000915090508060000154908060010180546110d990613b80565b80601f016020809104026020016040519081016040528092919081815260200182805461110590613b80565b80156111525780601f1061112757610100808354040283529160200191611152565b820191906000526020600020905b81548152906001019060200180831161113557829003601f168201915b5050505050908060020154908060030160009054906101000a900473ffffffffffffffffffffffffffffffffffffffff169080600401805461119390613b80565b80601f01602080910402602001604051908101604052809291908181526020018280546111bf90613b80565b801561120c5780601f106111e15761010080835404028352916020019161120c565b820191906000526020600020905b8154815290600101906020018083116111ef57829003601f168201915b5050505050905085565b600460205280600052604060002060009150905080600001549080600101805461123f90613b80565b80601f016020809104026020016040519081016040528092919081815260200182805461126b90613b80565b80156112b85780601f1061128d576101008083540402835291602001916112b8565b820191906000526020600020905b81548152906001019060200180831161129b57829003601f168201915b5050505050908060020154908060030160009054906101000a900473ffffffffffffffffffffffffffffffffffffffff16908060040180546112f990613b80565b80601f016020809104026020016040519081016040528092919081815260200182805461132590613b80565b80156113725780601f1061134757610100808354040283529160200191611372565b820191906000526020600020905b81548152906001019060200180831161135557829003601f168201915b5050505050905085565b600a6020528060005260406000206000915090508060000154908060010154908060020160009054906101000a900473ffffffffffffffffffffffffffffffffffffffff16908060030160009054906101000a900473ffffffffffffffffffffffffffffffffffffffff16908060040180546113f790613b80565b80601f016020809104026020016040519081016040528092919081815260200182805461142390613b80565b80156114705780601f1061144557610100808354040283529160200191611470565b820191906000526020600020905b81548152906001019060200180831161145357829003601f168201915b5050505050908060050154905086565b60008173ffffffffffffffffffffffffffffffffffffffff16319050919050565b60086020528060005260406000206000915090508060000154908060010180546114ca90613b80565b80601f01602080910402602001604051908101604052809291908181526020018280546114f690613b80565b80156115435780601f1061151857610100808354040283529160200191611543565b820191906000526020600020905b81548152906001019060200180831161152657829003601f168201915b5050505050908060020154908060030160009054906101000a900473ffffffffffffffffffffffffffffffffffffffff169080600401549080600501805461158a90613b80565b80601f01602080910402602001604051908101604052809291908181526020018280546115b690613b80565b80156116035780601f106115d857610100808354040283529160200191611603565b820191906000526020600020905b8154815290600101906020018083116115e657829003601f168201915b5050505050905086565b60056020528060005260406000206000915054906101000a900473ffffffffffffffffffffffffffffffffffffffff1681565b60035481565b6002600081548092919061165990613b09565b9190505550611666612de4565b600a600086815260200190815260200160002060020160009054906101000a900473ffffffffffffffffffffffffffffffffffffffff168160a0019073ffffffffffffffffffffffffffffffffffffffff16908173ffffffffffffffffffffffffffffffffffffffff168152505060025481600001818152505081816060019060028111156116f8576116f761368c565b5b9081600281111561170c5761170b61368c565b5b815250508281604001818152505033816080019073ffffffffffffffffffffffffffffffffffffffff16908173ffffffffffffffffffffffffffffffffffffffff168152505080600b6000600254815260200190815260200160002060008201518160000155602082015181600101908051906020019061178e929190612e58565b506040820151816002015560608201518160030160006101000a81548160ff021916908360028111156117c4576117c361368c565b5b021790555060808201518160030160016101000a81548173ffffffffffffffffffffffffffffffffffffffff021916908373ffffffffffffffffffffffffffffffffffffffff16021790555060a08201518160040160006101000a81548173ffffffffffffffffffffffffffffffffffffffff021916908373ffffffffffffffffffffffffffffffffffffffff160217905550905050600b60006002548152602001908152602001600020600101849080600181540180825580915050600190039060005260206000200160009091909190915090816118a49190613d5d565b506118b2856002543361226c565b6002547f4687f3121d2d2f3cbf4c5b377825b06af8b3f39ba92dedb00980c6111069749385426040516118e6929190613e2f565b60405180910390a28160028111156119015761190061368c565b5b6002547f68c3e9c52778c2835a02025af9e7e5556aad34be5ebe4ad9cde21b8fae145b3a426040516119339190613217565b60405180910390a35050505050565b60015481565b600960205280600052604060002060009150905080600001549080600101805461197190613b80565b80601f016020809104026020016040519081016040528092919081815260200182805461199d90613b80565b80156119ea5780601f106119bf576101008083540402835291602001916119ea565b820191906000526020600020905b8154815290600101906020018083116119cd57829003601f168201915b5050505050908060020154908060030160009054906101000a900473ffffffffffffffffffffffffffffffffffffffff1690806004015490806005018054611a3190613b80565b80601f0160208091040260200160405190810160405280929190818152602001828054611a5d90613b80565b8015611aaa5780601f10611a7f57610100808354040283529160200191611aaa565b820191906000526020600020905b815481529060010190602001808311611a8d57829003601f168201915b5050505050905086565b600060016000815480929190611ac990613b09565b9190505550611ad6612eb1565b600154816000018181525050838160800181905250828160a001818152505033816040019073ffffffffffffffffffffffffffffffffffffffff16908173ffffffffffffffffffffffffffffffffffffffff168152505080600a60006001548152602001908152602001600020600082015181600001556020820151816001015560408201518160020160006101000a81548173ffffffffffffffffffffffffffffffffffffffff021916908373ffffffffffffffffffffffffffffffffffffffff16021790555060608201518160030160006101000a81548173ffffffffffffffffffffffffffffffffffffffff021916908373ffffffffffffffffffffffffffffffffffffffff1602179055506080820151816004019081611bfa9190613d5d565b5060a0820151816005015590505060015491505092915050565b6000600b60008481526020019081526020016000206040518060c00160405290816000820154815260200160018201805480602002602001604051908101604052809291908181526020016000905b82821015611d0f578382906000526020600020018054611c8290613b80565b80601f0160208091040260200160405190810160405280929190818152602001828054611cae90613b80565b8015611cfb5780601f10611cd057610100808354040283529160200191611cfb565b820191906000526020600020905b815481529060010190602001808311611cde57829003601f168201915b505050505081526020019060010190611c63565b505050508152602001600282015481526020016003820160009054906101000a900460ff166002811115611d4657611d4561368c565b5b6002811115611d5857611d5761368c565b5b81526020016003820160019054906101000a900473ffffffffffffffffffffffffffffffffffffffff1673ffffffffffffffffffffffffffffffffffffffff1673ffffffffffffffffffffffffffffffffffffffff1681526020016004820160009054906101000a900473ffffffffffffffffffffffffffffffffffffffff1673ffffffffffffffffffffffffffffffffffffffff1673ffffffffffffffffffffffffffffffffffffffff16815250509050606060028303611ea6576000826080015190508073ffffffffffffffffffffffffffffffffffffffff166108fc84604001519081150290604051600060405180830381858888f19350505050158015611e67573d6000803e3d6000fd5b506040518060400160405280600981526020017f43616e63656c6c65640000000000000000000000000000000000000000000000815250915050611f3d565b60018303611f3c5760008260a0015190508073ffffffffffffffffffffffffffffffffffffffff166108fc84604001519081150290604051600060405180830381858888f19350505050158015611f01573d6000803e3d6000fd5b506040518060400160405280600981526020017f44656c69766572656400000000000000000000000000000000000000000000008152509150505b5b600b600085815260200190815260200160002060010181908060018154018082558091505060019003906000526020600020016000909190919091509081611f859190613d5d565b50837f4687f3121d2d2f3cbf4c5b377825b06af8b3f39ba92dedb00980c611106974938242604051611fb8929190613e2f565b60405180910390a26002600b600086815260200190815260200160002060030160006101000a81548160ff02191690836002811115611ffa57611ff961368c565b5b02179055506002808111156120125761201161368c565b5b847f68c3e9c52778c2835a02025af9e7e5556aad34be5ebe4ad9cde21b8fae145b3a426040516120429190613217565b60405180910390a350505050565b600b6020528060005260406000206000915090508060000154908060020154908060030160009054906101000a900460ff16908060030160019054906101000a900473ffffffffffffffffffffffffffffffffffffffff16908060040160009054906101000a900473ffffffffffffffffffffffffffffffffffffffff16905085565b60076020528060005260406000206000915090508060000154908060010180546120fc90613b80565b80601f016020809104026020016040519081016040528092919081815260200182805461212890613b80565b80156121755780601f1061214a57610100808354040283529160200191612175565b820191906000526020600020905b81548152906001019060200180831161215857829003601f168201915b5050505050908060020154908060030160009054906101000a900473ffffffffffffffffffffffffffffffffffffffff16908060040154908060050180546121bc90613b80565b80601f01602080910402602001604051908101604052809291908181526020018280546121e890613b80565b80156122355780601f1061220a57610100808354040283529160200191612235565b820191906000526020600020905b81548152906001019060200180831161221857829003601f168201915b5050505050905086565b6000600b600083815260200190815260200160002060030160009054906101000a900460ff169050919050565b6000600a60008581526020019081526020016000206040518060c001604052908160008201548152602001600182015481526020016002820160009054906101000a900473ffffffffffffffffffffffffffffffffffffffff1673ffffffffffffffffffffffffffffffffffffffff1673ffffffffffffffffffffffffffffffffffffffff1681526020016003820160009054906101000a900473ffffffffffffffffffffffffffffffffffffffff1673ffffffffffffffffffffffffffffffffffffffff1673ffffffffffffffffffffffffffffffffffffffff16815260200160048201805461235c90613b80565b80601f016020809104026020016040519081016040528092919081815260200182805461238890613b80565b80156123d55780601f106123aa576101008083540402835291602001916123d5565b820191906000526020600020905b8154815290600101906020018083116123b857829003601f168201915b5050505050815260200160058201548152505090508281602001818152505081816060019073ffffffffffffffffffffffffffffffffffffffff16908173ffffffffffffffffffffffffffffffffffffffff168152505080600a6000868152602001908152602001600020600082015181600001556020820151816001015560408201518160020160006101000a81548173ffffffffffffffffffffffffffffffffffffffff021916908373ffffffffffffffffffffffffffffffffffffffff16021790555060608201518160030160006101000a81548173ffffffffffffffffffffffffffffffffffffffff021916908373ffffffffffffffffffffffffffffffffffffffff16021790555060808201518160040190816124f79190613d5d565b5060a0820151816005015590505050505050565b60025481565b6000816040516020016125249190613efe565b604051602081830303815290604052805190602001208360405160200161254b9190613efe565b6040516020818303038152906040528051906020012014905092915050565b80600b6000600254815260200190815260200160002060030160006101000a81548160ff021916908360028111156125a5576125a461368c565b5b02179055508060028111156125bd576125bc61368c565b5b827f68c3e9c52778c2835a02025af9e7e5556aad34be5ebe4ad9cde21b8fae145b3a426040516125ed9190613217565b60405180910390a35050565b8234101561263c576040517f08c379a000000000000000000000000000000000000000000000000000000000815260040161263390613f61565b60405180910390fd5b6001600b600084815260200190815260200160002060030160006101000a81548160ff021916908360028111156126765761267561368c565b5b02179055506001600281111561268f5761268e61368c565b5b827f68c3e9c52778c2835a02025af9e7e5556aad34be5ebe4ad9cde21b8fae145b3a426040516126bf9190613217565b60405180910390a3600b60008381526020019081526020016000206001018190806001815401808255809150506001900390600052602060002001600090919091909150908161270f9190613d5d565b50817f4687f3121d2d2f3cbf4c5b377825b06af8b3f39ba92dedb00980c611106974938242604051612742929190613e2f565b60405180910390a2505050565b6060600b6000838152602001908152602001600020600101805480602002602001604051908101604052809291908181526020016000905b828210156128335783829060005260206000200180546127a690613b80565b80601f01602080910402602001604051908101604052809291908181526020018280546127d290613b80565b801561281f5780601f106127f45761010080835404028352916020019161281f565b820191906000526020600020905b81548152906001019060200180831161280257829003601f168201915b505050505081526020019060010190612787565b505050509050919050565b600080600460003373ffffffffffffffffffffffffffffffffffffffff1673ffffffffffffffffffffffffffffffffffffffff16815260200190815260200160002060000154905060008103612ad057600360008154809291906128a190613b09565b91905055506128ae612f13565b6003548160000181815250508581602001819052508481604001818152505033816060019073ffffffffffffffffffffffffffffffffffffffff16908173ffffffffffffffffffffffffffffffffffffffff168152505083816080018190525080600460003373ffffffffffffffffffffffffffffffffffffffff1673ffffffffffffffffffffffffffffffffffffffff16815260200190815260200160002060008201518160000155602082015181600101908161296d9190613d5d565b506040820151816002015560608201518160030160006101000a81548173ffffffffffffffffffffffffffffffffffffffff021916908373ffffffffffffffffffffffffffffffffffffffff16021790555060808201518160040190816129d49190613d5d565b509050503360056000600354815260200190815260200160002060006101000a81548173ffffffffffffffffffffffffffffffffffffffff021916908373ffffffffffffffffffffffffffffffffffffffff1602179055508060066000878152602001908152602001600020600082015181600001556020820151816001019081612a5f9190613d5d565b506040820151816002015560608201518160030160006101000a81548173ffffffffffffffffffffffffffffffffffffffff021916908373ffffffffffffffffffffffffffffffffffffffff1602179055506080820151816004019081612ac69190613d5d565b5090505050612d8b565b6000600460003373ffffffffffffffffffffffffffffffffffffffff1673ffffffffffffffffffffffffffffffffffffffff1681526020019081526020016000206040518060a001604052908160008201548152602001600182018054612b3690613b80565b80601f0160208091040260200160405190810160405280929190818152602001828054612b6290613b80565b8015612baf5780601f10612b8457610100808354040283529160200191612baf565b820191906000526020600020905b815481529060010190602001808311612b9257829003601f168201915b50505050508152602001600282015481526020016003820160009054906101000a900473ffffffffffffffffffffffffffffffffffffffff1673ffffffffffffffffffffffffffffffffffffffff1673ffffffffffffffffffffffffffffffffffffffff168152602001600482018054612c2890613b80565b80601f0160208091040260200160405190810160405280929190818152602001828054612c5490613b80565b8015612ca15780601f10612c7657610100808354040283529160200191612ca1565b820191906000526020600020905b815481529060010190602001808311612c8457829003601f168201915b50505050508152505090508481604001818152505083816080018190525080600460003373ffffffffffffffffffffffffffffffffffffffff1673ffffffffffffffffffffffffffffffffffffffff168152602001908152602001600020600082015181600001556020820151816001019081612d1e9190613d5d565b506040820151816002015560608201518160030160006101000a81548173ffffffffffffffffffffffffffffffffffffffff021916908373ffffffffffffffffffffffffffffffffffffffff1602179055506080820151816004019081612d859190613d5d565b50905050505b6003549150509392505050565b6040518060c00160405280600081526020016060815260200160008152602001600073ffffffffffffffffffffffffffffffffffffffff16815260200160008152602001606081525090565b6040518060c0016040528060008152602001606081526020016000815260200160006002811115612e1857612e1761368c565b5b8152602001600073ffffffffffffffffffffffffffffffffffffffff168152602001600073ffffffffffffffffffffffffffffffffffffffff1681525090565b828054828255906000526020600020908101928215612ea0579160200282015b82811115612e9f578251829081612e8f9190613d5d565b5091602001919060010190612e78565b5b509050612ead9190612f58565b5090565b6040518060c001604052806000815260200160008152602001600073ffffffffffffffffffffffffffffffffffffffff168152602001600073ffffffffffffffffffffffffffffffffffffffff16815260200160608152602001600081525090565b6040518060a00160405280600081526020016060815260200160008152602001600073ffffffffffffffffffffffffffffffffffffffff168152602001606081525090565b5b80821115612f785760008181612f6f9190612f7c565b50600101612f59565b5090565b508054612f8890613b80565b6000825580601f10612f9a5750612fb9565b601f016020900490600052602060002090810190612fb89190612fbc565b5b50565b5b80821115612fd5576000816000905550600101612fbd565b5090565b6000604051905090565b600080fd5b600080fd5b600080fd5b600080fd5b6000601f19601f8301169050919050565b7f4e487b7100000000000000000000000000000000000000000000000000000000600052604160045260246000fd5b61304082612ff7565b810181811067ffffffffffffffff8211171561305f5761305e613008565b5b80604052505050565b6000613072612fd9565b905061307e8282613037565b919050565b600067ffffffffffffffff82111561309e5761309d613008565b5b6130a782612ff7565b9050602081019050919050565b82818337600083830152505050565b60006130d66130d184613083565b613068565b9050828152602081018484840111156130f2576130f1612ff2565b5b6130fd8482856130b4565b509392505050565b600082601f83011261311a57613119612fed565b5b813561312a8482602086016130c3565b91505092915050565b6000819050919050565b61314681613133565b811461315157600080fd5b50565b6000813590506131638161313d565b92915050565b6000806000806080858703121561318357613182612fe3565b5b600085013567ffffffffffffffff8111156131a1576131a0612fe8565b5b6131ad87828801613105565b94505060206131be87828801613154565b93505060406131cf87828801613154565b925050606085013567ffffffffffffffff8111156131f0576131ef612fe8565b5b6131fc87828801613105565b91505092959194509250565b61321181613133565b82525050565b600060208201905061322c6000830184613208565b92915050565b6000806040838503121561324957613248612fe3565b5b600061325785828601613154565b925050602083013567ffffffffffffffff81111561327857613277612fe8565b5b61328485828601613105565b9150509250929050565b6000602082840312156132a4576132a3612fe3565b5b60006132b284828501613154565b91505092915050565b600081519050919050565b600082825260208201905092915050565b60005b838110156132f55780820151818401526020810190506132da565b60008484015250505050565b600061330c826132bb565b61331681856132c6565b93506133268185602086016132d7565b61332f81612ff7565b840191505092915050565b600073ffffffffffffffffffffffffffffffffffffffff82169050919050565b60006133658261333a565b9050919050565b6133758161335a565b82525050565b600060a0820190506133906000830188613208565b81810360208301526133a28187613301565b90506133b16040830186613208565b6133be606083018561336c565b81810360808301526133d08184613301565b90509695505050505050565b6133e58161335a565b81146133f057600080fd5b50565b600081359050613402816133dc565b92915050565b60006020828403121561341e5761341d612fe3565b5b600061342c848285016133f3565b91505092915050565b600060c08201905061344a6000830189613208565b6134576020830188613208565b613464604083018761336c565b613471606083018661336c565b81810360808301526134838185613301565b905061349260a0830184613208565b979650505050505050565b60006134a88261333a565b9050919050565b6134b88161349d565b82525050565b600060c0820190506134d36000830189613208565b81810360208301526134e58188613301565b90506134f46040830187613208565b61350160608301866134af565b61350e6080830185613208565b81810360a08301526135208184613301565b9050979650505050505050565b6000602082019050613542600083018461336c565b92915050565b6003811061355557600080fd5b50565b60008135905061356781613548565b92915050565b6000806000806080858703121561358757613586612fe3565b5b600061359587828801613154565b945050602085013567ffffffffffffffff8111156135b6576135b5612fe8565b5b6135c287828801613105565b93505060406135d387828801613154565b92505060606135e487828801613558565b91505092959194509250565b6000806040838503121561360757613606612fe3565b5b600083013567ffffffffffffffff81111561362557613624612fe8565b5b61363185828601613105565b925050602061364285828601613154565b9150509250929050565b6000806040838503121561366357613662612fe3565b5b600061367185828601613154565b925050602061368285828601613154565b9150509250929050565b7f4e487b7100000000000000000000000000000000000000000000000000000000600052602160045260246000fd5b600381106136cc576136cb61368c565b5b50565b60008190506136dd826136bb565b919050565b60006136ed826136cf565b9050919050565b6136fd816136e2565b82525050565b600060a0820190506137186000830188613208565b6137256020830187613208565b61373260408301866136f4565b61373f606083018561336c565b61374c608083018461336c565b9695505050505050565b600060208201905061376b60008301846136f4565b92915050565b60008060006060848603121561378a57613789612fe3565b5b600061379886828701613154565b93505060206137a986828701613154565b92505060406137ba868287016133f3565b9150509250925092565b600080604083850312156137db576137da612fe3565b5b600083013567ffffffffffffffff8111156137f9576137f8612fe8565b5b61380585828601613105565b925050602083013567ffffffffffffffff81111561382657613825612fe8565b5b61383285828601613105565b9150509250929050565b60008115159050919050565b6138518161383c565b82525050565b600060208201905061386c6000830184613848565b92915050565b6000806040838503121561388957613888612fe3565b5b600061389785828601613154565b92505060206138a885828601613558565b9150509250929050565b6000806000606084860312156138cb576138ca612fe3565b5b60006138d986828701613154565b93505060206138ea86828701613154565b925050604084013567ffffffffffffffff81111561390b5761390a612fe8565b5b61391786828701613105565b9150509250925092565b600081519050919050565b600082825260208201905092915050565b6000819050602082019050919050565b600082825260208201905092915050565b6000613969826132bb565b613973818561394d565b93506139838185602086016132d7565b61398c81612ff7565b840191505092915050565b60006139a3838361395e565b905092915050565b6000602082019050919050565b60006139c382613921565b6139cd818561392c565b9350836020820285016139df8561393d565b8060005b85811015613a1b57848403895281516139fc8582613997565b9450613a07836139ab565b925060208a019950506001810190506139e3565b50829750879550505050505092915050565b60006020820190508181036000830152613a4781846139b8565b905092915050565b600080600060608486031215613a6857613a67612fe3565b5b600084013567ffffffffffffffff811115613a8657613a85612fe8565b5b613a9286828701613105565b9350506020613aa386828701613154565b925050604084013567ffffffffffffffff811115613ac457613ac3612fe8565b5b613ad086828701613105565b9150509250925092565b7f4e487b7100000000000000000000000000000000000000000000000000000000600052601160045260246000fd5b6000613b1482613133565b91507fffffffffffffffffffffffffffffffffffffffffffffffffffffffffffffffff8203613b4657613b45613ada565b5b600182019050919050565b7f4e487b7100000000000000000000000000000000000000000000000000000000600052602260045260246000fd5b60006002820490506001821680613b9857607f821691505b602082108103613bab57613baa613b51565b5b50919050565b60008190508160005260206000209050919050565b60006020601f8301049050919050565b600082821b905092915050565b600060088302613c137fffffffffffffffffffffffffffffffffffffffffffffffffffffffffffffffff82613bd6565b613c1d8683613bd6565b95508019841693508086168417925050509392505050565b6000819050919050565b6000613c5a613c55613c5084613133565b613c35565b613133565b9050919050565b6000819050919050565b613c7483613c3f565b613c88613c8082613c61565b848454613be3565b825550505050565b600090565b613c9d613c90565b613ca8818484613c6b565b505050565b5b81811015613ccc57613cc1600082613c95565b600181019050613cae565b5050565b601f821115613d1157613ce281613bb1565b613ceb84613bc6565b81016020851015613cfa578190505b613d0e613d0685613bc6565b830182613cad565b50505b505050565b600082821c905092915050565b6000613d3460001984600802613d16565b1980831691505092915050565b6000613d4d8383613d23565b9150826002028217905092915050565b613d66826132bb565b67ffffffffffffffff811115613d7f57613d7e613008565b5b613d898254613b80565b613d94828285613cd0565b600060209050601f831160018114613dc75760008415613db5578287015190505b613dbf8582613d41565b865550613e27565b601f198416613dd586613bb1565b60005b82811015613dfd57848901518255600182019150602085019450602081019050613dd8565b86831015613e1a5784890151613e16601f891682613d23565b8355505b6001600288020188555050505b505050505050565b60006040820190508181036000830152613e498185613301565b9050613e586020830184613208565b9392505050565b6000613e6a82613133565b9150613e7583613133565b9250828203905081811115613e8d57613e8c613ada565b5b92915050565b7f4e487b7100000000000000000000000000000000000000000000000000000000600052603260045260246000fd5b600081905092915050565b6000613ed8826132bb565b613ee28185613ec2565b9350613ef28185602086016132d7565b80840191505092915050565b6000613f0a8284613ecd565b915081905092915050565b7f6c657373206d6f6e657900000000000000000000000000000000000000000000600082015250565b6000613f4b600a836132c6565b9150613f5682613f15565b602082019050919050565b60006020820190508181036000830152613f7a81613f3e565b905091905056fea26469706673582212205795c31b110549dfe8baff14536fe7eae690ba8d771bbf8c4284c8da58ebd07664736f6c63430008180033",
  "linkReferences": {},
  "deployedLinkReferences": {}
}