{
  "contractName": "SupplyChain",
  "abi": [
    {
      "anonymous": false,
      "inputs": [
        {
          "indexed": true,
          "internalType": "uint256",
          "name": "shipId",
          "type": "uint256"
        },
        {
          "indexed": false,
          "internalType": "string",
          "name": "shState",
          "type": "string"
        },
        {
          "indexed": false,
          "internalType": "uint256",
          "name": "times",
          "type": "uint256"
        }
      ],
      "name": "processChange",
      "type": "event"
    },
    {
      "anonymous": false,
      "inputs": [
        {
          "indexed": true,
          "internalType": "uint256",
          "name": "shipId",
          "type": "uint256"
        },
        {
          "indexed": true,
          "internalType": "enum SupplyChain.Status",
          "name": "pay",
          "type": "uint8"
        },
        {
          "indexed": false,
          "internalType": "uint256",
          "name": "times",
          "type": "uint256"
        }
      ],
      "name": "processPay",
      "type": "event"
    },
    {
      "inputs": [
        {
          "internalType": "uint256",
          "name": "",
          "type": "uint256"
        }
      ],
      "name": "AdminAadhars",
      "outputs": [
        {
          "internalType": "uint256",
          "name": "adminId",
          "type": "uint256"
        },
        {
          "internalType": "string",
          "name": "adminName",
          "type": "string"
        },
        {
          "internalType": "uint256",
          "name": "adminAadharNo",
          "type": "uint256"
        },
        {
          "internalType": "address",
          "name": "adminAddr",
          "type": "address"
        },
        {
          "internalType": "string",
          "name": "role",
          "type": "string"
        }
      ],
      "stateMutability": "view",
      "type": "function"
    },
    {
      "inputs": [
        {
          "internalType": "uint256",
          "name": "",
          "type": "uint256"
        }
      ],
      "name": "AdminIds",
      "outputs": [
        {
          "internalType": "address",
          "name": "",
          "type": "address"
        }
      ],
      "stateMutability": "view",
      "type": "function"
    },
    {
      "inputs": [
        {
          "internalType": "address",
          "name": "",
          "type": "address"
        }
      ],
      "name": "Admins",
      "outputs": [
        {
          "internalType": "uint256",
          "name": "adminId",
          "type": "uint256"
        },
        {
          "internalType": "string",
          "name": "adminName",
          "type": "string"
        },
        {
          "internalType": "uint256",
          "name": "adminAadharNo",
          "type": "uint256"
        },
        {
          "internalType": "address",
          "name": "adminAddr",
          "type": "address"
        },
        {
          "internalType": "string",
          "name": "role",
          "type": "string"
        }
      ],
      "stateMutability": "view",
      "type": "function"
    },
    {
      "inputs": [
        {
          "internalType": "uint256",
          "name": "",
          "type": "uint256"
        }
      ],
      "name": "Items",
      "outputs": [
        {
          "internalType": "uint256",
          "name": "itemId",
          "type": "uint256"
        },
        {
          "internalType": "uint256",
          "name": "shipmentId",
          "type": "uint256"
        },
        {
          "internalType": "address",
          "name": "maddress",
          "type": "address"
        },
        {
          "internalType": "address",
          "name": "caddress",
          "type": "address"
        },
        {
          "internalType": "string",
          "name": "description",
          "type": "string"
        },
        {
          "internalType": "uint256",
          "name": "price",
          "type": "uint256"
        }
      ],
      "stateMutability": "view",
      "type": "function"
    },
    {
      "inputs": [
        {
          "internalType": "uint256",
          "name": "",
          "type": "uint256"
        }
      ],
      "name": "Shipments",
      "outputs": [
        {
          "internalType": "uint256",
          "name": "shipmentId",
          "type": "uint256"
        },
        {
          "internalType": "uint256",
          "name": "totalAmt",
          "type": "uint256"
        },
        {
          "internalType": "enum SupplyChain.Status",
          "name": "payment",
          "type": "uint8"
        },
        {
          "internalType": "address",
          "name": "caddress",
          "type": "address"
        },
        {
          "internalType": "address",
          "name": "maddress",
          "type": "address"
        }
      ],
      "stateMutability": "view",
      "type": "function"
    },
    {
      "inputs": [
        {
          "internalType": "uint256",
          "name": "",
          "type": "uint256"
        }
      ],
      "name": "User_Aadhars",
      "outputs": [
        {
          "internalType": "uint256",
          "name": "userId",
          "type": "uint256"
        },
        {
          "internalType": "string",
          "name": "userName",
          "type": "string"
        },
        {
          "internalType": "uint256",
          "name": "aadharNo",
          "type": "uint256"
        },
        {
          "internalType": "address payable",
          "name": "addr",
          "type": "address"
        },
        {
          "internalType": "uint256",
          "name": "pincode",
          "type": "uint256"
        },
        {
          "internalType": "string",
          "name": "role",
          "type": "string"
        }
      ],
      "stateMutability": "view",
      "type": "function"
    },
    {
      "inputs": [
        {
          "internalType": "uint256",
          "name": "",
          "type": "uint256"
        }
      ],
      "name": "User_Ids",
      "outputs": [
        {
          "internalType": "uint256",
          "name": "userId",
          "type": "uint256"
        },
        {
          "internalType": "string",
          "name": "userName",
          "type": "string"
        },
        {
          "internalType": "uint256",
          "name": "aadharNo",
          "type": "uint256"
        },
        {
          "internalType": "address payable",
          "name": "addr",
          "type": "address"
        },
        {
          "internalType": "uint256",
          "name": "pincode",
          "type": "uint256"
        },
        {
          "internalType": "string",
          "name": "role",
          "type": "string"
        }
      ],
      "stateMutability": "view",
      "type": "function"
    },
    {
      "inputs": [
        {
          "internalType": "address",
          "name": "",
          "type": "address"
        }
      ],
      "name": "Users",
      "outputs": [
        {
          "internalType": "uint256",
          "name": "userId",
          "type": "uint256"
        },
        {
          "internalType": "string",
          "name": "userName",
          "type": "string"
        },
        {
          "internalType": "uint256",
          "name": "aadharNo",
          "type": "uint256"
        },
        {
          "internalType": "address payable",
          "name": "addr",
          "type": "address"
        },
        {
          "internalType": "uint256",
          "name": "pincode",
          "type": "uint256"
        },
        {
          "internalType": "string",
          "name": "role",
          "type": "string"
        }
      ],
      "stateMutability": "view",
      "type": "function"
    },
    {
      "inputs": [],
      "name": "adminCount",
      "outputs": [
        {
          "internalType": "uint256",
          "name": "",
          "type": "uint256"
        }
      ],
      "stateMutability": "view",
      "type": "function"
    },
    {
      "inputs": [],
      "name": "itemCount",
      "outputs": [
        {
          "internalType": "uint256",
          "name": "",
          "type": "uint256"
        }
      ],
      "stateMutability": "view",
      "type": "function"
    },
    {
      "inputs": [],
      "name": "shipmentCount",
      "outputs": [
        {
          "internalType": "uint256",
          "name": "",
          "type": "uint256"
        }
      ],
      "stateMutability": "view",
      "type": "function"
    },
    {
      "inputs": [],
      "name": "userCount",
      "outputs": [
        {
          "internalType": "uint256",
          "name": "",
          "type": "uint256"
        }
      ],
      "stateMutability": "view",
      "type": "function"
    },
    {
      "inputs": [
        {
          "internalType": "string",
          "name": "_name",
          "type": "string"
        },
        {
          "internalType": "uint256",
          "name": "_adminAadharno",
          "type": "uint256"
        },
        {
          "internalType": "string",
          "name": "_role",
          "type": "string"
        }
      ],
      "name": "addAdmin",
      "outputs": [
        {
          "internalType": "uint256",
          "name": "",
          "type": "uint256"
        }
      ],
      "stateMutability": "nonpayable",
      "type": "function"
    },
    {
      "inputs": [
        {
          "internalType": "string",
          "name": "_name",
          "type": "string"
        },
        {
          "internalType": "uint256",
          "name": "_aadharNo",
          "type": "uint256"
        },
        {
          "internalType": "uint256",
          "name": "_pincode",
          "type": "uint256"
        },
        {
          "internalType": "string",
          "name": "_role",
          "type": "string"
        }
      ],
      "name": "addUser",
      "outputs": [
        {
          "internalType": "uint256",
          "name": "",
          "type": "uint256"
        }
      ],
      "stateMutability": "nonpayable",
      "type": "function"
    },
    {
      "inputs": [
        {
          "internalType": "string",
          "name": "_description",
          "type": "string"
        },
        {
          "internalType": "uint256",
          "name": "_price",
          "type": "uint256"
        }
      ],
      "name": "createItems",
      "outputs": [
        {
          "internalType": "uint256",
          "name": "",
          "type": "uint256"
        }
      ],
      "stateMutability": "nonpayable",
      "type": "function"
    },
    {
      "inputs": [
        {
          "internalType": "uint256",
          "name": "_itemId",
          "type": "uint256"
        },
        {
          "internalType": "uint256",
          "name": "_shipId",
          "type": "uint256"
        },
        {
          "internalType": "address",
          "name": "_caddress",
          "type": "address"
        }
      ],
      "name": "updateItem",
      "outputs": [],
      "stateMutability": "nonpayable",
      "type": "function"
    },
    {
      "inputs": [
        {
          "internalType": "uint256",
          "name": "_itemId",
          "type": "uint256"
        },
        {
          "internalType": "string",
          "name": "_shipstatus",
          "type": "string"
        },
        {
          "internalType": "uint256",
          "name": "_totalAmt",
          "type": "uint256"
        },
        {
          "internalType": "enum SupplyChain.Status",
          "name": "_payment",
          "type": "uint8"
        }
      ],
      "name": "createShipment",
      "outputs": [],
      "stateMutability": "nonpayable",
      "type": "function"
    },
    {
      "inputs": [
        {
          "internalType": "uint256",
          "name": "_shipId",
          "type": "uint256"
        },
        {
          "internalType": "string",
          "name": "_shipStatus",
          "type": "string"
        }
      ],
      "name": "updateShstate",
      "outputs": [],
      "stateMutability": "nonpayable",
      "type": "function"
    },
    {
      "inputs": [
        {
          "internalType": "uint256",
          "name": "_shipId",
          "type": "uint256"
        },
        {
          "internalType": "enum SupplyChain.Status",
          "name": "_payment",
          "type": "uint8"
        }
      ],
      "name": "updateShstatus",
      "outputs": [],
      "stateMutability": "nonpayable",
      "type": "function"
    },
    {
      "inputs": [
        {
          "internalType": "uint256",
          "name": "_totAmt",
          "type": "uint256"
        },
        {
          "internalType": "uint256",
          "name": "_shipmentId",
          "type": "uint256"
        },
        {
          "internalType": "string",
          "name": "_shipStatus",
          "type": "string"
        }
      ],
      "name": "payitem",
      "outputs": [],
      "stateMutability": "payable",
      "type": "function"
    },
    {
      "inputs": [
        {
          "internalType": "uint256",
          "name": "_shipmentId",
          "type": "uint256"
        },
        {
          "internalType": "uint256",
          "name": "z",
          "type": "uint256"
        }
      ],
      "name": "withdrawMoney",
      "outputs": [],
      "stateMutability": "payable",
      "type": "function"
    },
    {
      "inputs": [
        {
          "internalType": "string",
          "name": "a",
          "type": "string"
        },
        {
          "internalType": "string",
          "name": "b",
          "type": "string"
        }
      ],
      "name": "compareStrings",
      "outputs": [
        {
          "internalType": "bool",
          "name": "",
          "type": "bool"
        }
      ],
      "stateMutability": "pure",
      "type": "function"
    },
    {
      "inputs": [
        {
          "internalType": "address",
          "name": "addr",
          "type": "address"
        }
      ],
      "name": "getbal",
      "outputs": [
        {
          "internalType": "uint256",
          "name": "",
          "type": "uint256"
        }
      ],
      "stateMutability": "view",
      "type": "function"
    },
    {
      "inputs": [
        {
          "internalType": "uint256",
          "name": "_shipid",
          "type": "uint256"
        }
      ],
      "name": "getShipmentStatus",
      "outputs": [
        {
          "internalType": "string[]",
          "name": "",
          "type": "string[]"
        }
      ],
      "stateMutability": "view",
      "type": "function"
    },
    {
      "inputs": [
        {
          "internalType": "uint256",
          "name": "_shipid",
          "type": "uint256"
        }
      ],
      "name": "getPaymentStatus",
      "outputs": [
        {
          "internalType": "enum SupplyChain.Status",
          "name": "",
          "type": "uint8"
        }
      ],
      "stateMutability": "view",
      "type": "function"
    }
  ],
  "bytecode": "0x60806040526000805560006001556000600255600060035534801561002357600080fd5b50613f49806100336000396000f3fe6080604052600436106101655760003560e01c806371a789b3116100d1578063a5baabc21161008a578063bf934a9011610064578063bf934a90146105e6578063e2c159a71461060f578063ee21259d1461062b578063eedefb881461066857610165565b8063a5baabc214610555578063aace20b71461057e578063bed34bba146105a957610165565b806371a789b3146103fa5780637f77a8d51461043c5780638422d07b1461047957806394ef61ab1461049557806399b956a0146104d6578063a16500431461051857610165565b8063190dd27711610123578063190dd277146102bf5780631a0e1d9d146102fc5780631b3eee4a1461033e5780632b7832b31461037b5780633939a75c146103a65780636bfb0d01146103cf57610165565b8062410e531461016a57806307973ccf146101a757806308311413146101d25780630dae7f3c146101fb5780630ec6d58a1461023c57806317b47cc41461027d575b600080fd5b34801561017657600080fd5b50610191600480360381019061018c91906130fb565b6106a5565b60405161019e91906131a9565b60405180910390f35b3480156101b357600080fd5b506101bc610e32565b6040516101c991906131a9565b60405180910390f35b3480156101de57600080fd5b506101f960048036038101906101f491906131c4565b610e38565b005b34801561020757600080fd5b50610222600480360381019061021d9190613220565b6110b0565b60405161023395949392919061330d565b60405180910390f35b34801561024857600080fd5b50610263600480360381019061025e919061339a565b611216565b60405161027495949392919061330d565b60405180910390f35b34801561028957600080fd5b506102a4600480360381019061029f9190613220565b61137c565b6040516102b6969594939291906133c7565b60405180910390f35b3480156102cb57600080fd5b506102e660048036038101906102e1919061339a565b611480565b6040516102f391906131a9565b60405180910390f35b34801561030857600080fd5b50610323600480360381019061031e9190613220565b6114a1565b60405161033596959493929190613450565b60405180910390f35b34801561034a57600080fd5b5061036560048036038101906103609190613220565b61160d565b60405161037291906134bf565b60405180910390f35b34801561038757600080fd5b50610390611640565b60405161039d91906131a9565b60405180910390f35b3480156103b257600080fd5b506103cd60048036038101906103c891906134ff565b611646565b005b3480156103db57600080fd5b506103e46118d4565b6040516103f191906131a9565b60405180910390f35b34801561040657600080fd5b50610421600480360381019061041c9190613220565b6118da565b60405161043396959493929190613450565b60405180910390f35b34801561044857600080fd5b50610463600480360381019061045e9190613582565b611a46565b60405161047091906131a9565b60405180910390f35b610493600480360381019061048e91906135de565b611ba6565b005b3480156104a157600080fd5b506104bc60048036038101906104b79190613220565b611fe2565b6040516104cd959493929190613695565b60405180910390f35b3480156104e257600080fd5b506104fd60048036038101906104f8919061339a565b612065565b60405161050f96959493929190613450565b60405180910390f35b34801561052457600080fd5b5061053f600480360381019061053a9190613220565b6121d1565b60405161054c91906136e8565b60405180910390f35b34801561056157600080fd5b5061057c60048036038101906105779190613703565b6121fe565b005b34801561058a57600080fd5b5061059361249d565b6040516105a091906131a9565b60405180910390f35b3480156105b557600080fd5b506105d060048036038101906105cb9190613756565b6124a3565b6040516105dd91906137e9565b60405180910390f35b3480156105f257600080fd5b5061060d60048036038101906106089190613804565b6124fc565b005b61062960048036038101906106249190613844565b61258b565b005b34801561063757600080fd5b50610652600480360381019061064d9190613220565b6126e1565b60405161065f91906139bf565b60405180910390f35b34801561067457600080fd5b5061068f600480360381019061068a91906139e1565b6127d0565b60405161069c91906131a9565b60405180910390f35b600080600760003373ffffffffffffffffffffffffffffffffffffffff1673ffffffffffffffffffffffffffffffffffffffff16815260200190815260200160002060030160009054906101000a900473ffffffffffffffffffffffffffffffffffffffff169050600073ffffffffffffffffffffffffffffffffffffffff168173ffffffffffffffffffffffffffffffffffffffff16036109fb57610749612d2a565b60008081548092919061075b90613a9b565b919050555060005481600001818152505086816020018190525033816060019073ffffffffffffffffffffffffffffffffffffffff16908173ffffffffffffffffffffffffffffffffffffffff168152505084816080018181525050838160a001819052508581604001818152505080600760003373ffffffffffffffffffffffffffffffffffffffff1673ffffffffffffffffffffffffffffffffffffffff1681526020019081526020016000206000820151816000015560208201518160010190816108299190613cef565b506040820151816002015560608201518160030160006101000a81548173ffffffffffffffffffffffffffffffffffffffff021916908373ffffffffffffffffffffffffffffffffffffffff1602179055506080820151816004015560a082015181600501908161089a9190613cef565b509050508060086000805481526020019081526020016000206000820151816000015560208201518160010190816108d29190613cef565b506040820151816002015560608201518160030160006101000a81548173ffffffffffffffffffffffffffffffffffffffff021916908373ffffffffffffffffffffffffffffffffffffffff1602179055506080820151816004015560a08201518160050190816109439190613cef565b50905050806009600088815260200190815260200160002060008201518160000155602082015181600101908161097a9190613cef565b506040820151816002015560608201518160030160006101000a81548173ffffffffffffffffffffffffffffffffffffffff021916908373ffffffffffffffffffffffffffffffffffffffff1602179055506080820151816004015560a08201518160050190816109eb9190613cef565b5090505060005492505050610e2a565b6000600760003373ffffffffffffffffffffffffffffffffffffffff1673ffffffffffffffffffffffffffffffffffffffff1681526020019081526020016000206040518060c001604052908160008201548152602001600182018054610a6190613b12565b80601f0160208091040260200160405190810160405280929190818152602001828054610a8d90613b12565b8015610ada5780601f10610aaf57610100808354040283529160200191610ada565b820191906000526020600020905b815481529060010190602001808311610abd57829003601f168201915b50505050508152602001600282015481526020016003820160009054906101000a900473ffffffffffffffffffffffffffffffffffffffff1673ffffffffffffffffffffffffffffffffffffffff1673ffffffffffffffffffffffffffffffffffffffff16815260200160048201548152602001600582018054610b5d90613b12565b80601f0160208091040260200160405190810160405280929190818152602001828054610b8990613b12565b8015610bd65780601f10610bab57610100808354040283529160200191610bd6565b820191906000526020600020905b815481529060010190602001808311610bb957829003601f168201915b505050505081525050905086816020018190525084816080018181525050838160a0018190525080600760003373ffffffffffffffffffffffffffffffffffffffff1673ffffffffffffffffffffffffffffffffffffffff168152602001908152602001600020600082015181600001556020820151816001019081610c5c9190613cef565b506040820151816002015560608201518160030160006101000a81548173ffffffffffffffffffffffffffffffffffffffff021916908373ffffffffffffffffffffffffffffffffffffffff1602179055506080820151816004015560a0820151816005019081610ccd9190613cef565b50905050806008600080548152602001908152602001600020600082015181600001556020820151816001019081610d059190613cef565b506040820151816002015560608201518160030160006101000a81548173ffffffffffffffffffffffffffffffffffffffff021916908373ffffffffffffffffffffffffffffffffffffffff1602179055506080820151816004015560a0820151816005019081610d769190613cef565b509050508060096000888152602001908152602001600020600082015181600001556020820151816001019081610dad9190613cef565b506040820151816002015560608201518160030160006101000a81548173ffffffffffffffffffffffffffffffffffffffff021916908373ffffffffffffffffffffffffffffffffffffffff1602179055506080820151816004015560a0820151816005019081610e1e9190613cef565b50905050600054925050505b949350505050565b60005481565b610e77816040518060400160405280600981526020017f43616e63656c6c656400000000000000000000000000000000000000000000008152506124a3565b15610f0057600b600083815260200190815260200160002060010181908060018154018082558091505060019003906000526020600020016000909190919091509081610ec49190613cef565b50817f4687f3121d2d2f3cbf4c5b377825b06af8b3f39ba92dedb00980c611106974938242604051610ef7929190613dc1565b60405180910390a25b6000600b6000848152602001908152602001600020600101805490509050611023600b6000858152602001908152602001600020600101600183610f449190613df1565b81548110610f5557610f54613e25565b5b906000526020600020018054610f6a90613b12565b80601f0160208091040260200160405190810160405280929190818152602001828054610f9690613b12565b8015610fe35780601f10610fb857610100808354040283529160200191610fe3565b820191906000526020600020905b815481529060010190602001808311610fc657829003601f168201915b50505050506040518060400160405280600981526020017f43616e63656c6c656400000000000000000000000000000000000000000000008152506124a3565b6110ab57600b60008481526020019081526020016000206001018290806001815401808255809150506001900390600052602060002001600090919091909150908161106f9190613cef565b50827f4687f3121d2d2f3cbf4c5b377825b06af8b3f39ba92dedb00980c6111069749383426040516110a2929190613dc1565b60405180910390a25b505050565b60066020528060005260406000206000915090508060000154908060010180546110d990613b12565b80601f016020809104026020016040519081016040528092919081815260200182805461110590613b12565b80156111525780601f1061112757610100808354040283529160200191611152565b820191906000526020600020905b81548152906001019060200180831161113557829003601f168201915b5050505050908060020154908060030160009054906101000a900473ffffffffffffffffffffffffffffffffffffffff169080600401805461119390613b12565b80601f01602080910402602001604051908101604052809291908181526020018280546111bf90613b12565b801561120c5780601f106111e15761010080835404028352916020019161120c565b820191906000526020600020905b8154815290600101906020018083116111ef57829003601f168201915b5050505050905085565b600460205280600052604060002060009150905080600001549080600101805461123f90613b12565b80601f016020809104026020016040519081016040528092919081815260200182805461126b90613b12565b80156112b85780601f1061128d576101008083540402835291602001916112b8565b820191906000526020600020905b81548152906001019060200180831161129b57829003601f168201915b5050505050908060020154908060030160009054906101000a900473ffffffffffffffffffffffffffffffffffffffff16908060040180546112f990613b12565b80601f016020809104026020016040519081016040528092919081815260200182805461132590613b12565b80156113725780601f1061134757610100808354040283529160200191611372565b820191906000526020600020905b81548152906001019060200180831161135557829003601f168201915b5050505050905085565b600a6020528060005260406000206000915090508060000154908060010154908060020160009054906101000a900473ffffffffffffffffffffffffffffffffffffffff16908060030160009054906101000a900473ffffffffffffffffffffffffffffffffffffffff16908060040180546113f790613b12565b80601f016020809104026020016040519081016040528092919081815260200182805461142390613b12565b80156114705780601f1061144557610100808354040283529160200191611470565b820191906000526020600020905b81548152906001019060200180831161145357829003601f168201915b5050505050908060050154905086565b60008173ffffffffffffffffffffffffffffffffffffffff16319050919050565b60086020528060005260406000206000915090508060000154908060010180546114ca90613b12565b80601f01602080910402602001604051908101604052809291908181526020018280546114f690613b12565b80156115435780601f1061151857610100808354040283529160200191611543565b820191906000526020600020905b81548152906001019060200180831161152657829003601f168201915b5050505050908060020154908060030160009054906101000a900473ffffffffffffffffffffffffffffffffffffffff169080600401549080600501805461158a90613b12565b80601f01602080910402602001604051908101604052809291908181526020018280546115b690613b12565b80156116035780601f106115d857610100808354040283529160200191611603565b820191906000526020600020905b8154815290600101906020018083116115e657829003601f168201915b5050505050905086565b60056020528060005260406000206000915054906101000a900473ffffffffffffffffffffffffffffffffffffffff1681565b60035481565b6002600081548092919061165990613a9b565b9190505550611666612d76565b600254816000018181525050818160600190600281111561168a5761168961361e565b5b9081600281111561169e5761169d61361e565b5b815250508281604001818152505033816080019073ffffffffffffffffffffffffffffffffffffffff16908173ffffffffffffffffffffffffffffffffffffffff168152505080600b60006002548152602001908152602001600020600082015181600001556020820151816001019080519060200190611720929190612dea565b506040820151816002015560608201518160030160006101000a81548160ff021916908360028111156117565761175561361e565b5b021790555060808201518160030160016101000a81548173ffffffffffffffffffffffffffffffffffffffff021916908373ffffffffffffffffffffffffffffffffffffffff16021790555060a08201518160040160006101000a81548173ffffffffffffffffffffffffffffffffffffffff021916908373ffffffffffffffffffffffffffffffffffffffff160217905550905050600b60006002548152602001908152602001600020600101849080600181540180825580915050600190039060005260206000200160009091909190915090816118369190613cef565b5061184485600254336121fe565b6002547f4687f3121d2d2f3cbf4c5b377825b06af8b3f39ba92dedb00980c611106974938542604051611878929190613dc1565b60405180910390a28160028111156118935761189261361e565b5b6002547f68c3e9c52778c2835a02025af9e7e5556aad34be5ebe4ad9cde21b8fae145b3a426040516118c591906131a9565b60405180910390a35050505050565b60015481565b600960205280600052604060002060009150905080600001549080600101805461190390613b12565b80601f016020809104026020016040519081016040528092919081815260200182805461192f90613b12565b801561197c5780601f106119515761010080835404028352916020019161197c565b820191906000526020600020905b81548152906001019060200180831161195f57829003601f168201915b5050505050908060020154908060030160009054906101000a900473ffffffffffffffffffffffffffffffffffffffff16908060040154908060050180546119c390613b12565b80601f01602080910402602001604051908101604052809291908181526020018280546119ef90613b12565b8015611a3c5780601f10611a1157610100808354040283529160200191611a3c565b820191906000526020600020905b815481529060010190602001808311611a1f57829003601f168201915b5050505050905086565b600060016000815480929190611a5b90613a9b565b9190505550611a68612e43565b600154816000018181525050838160800181905250828160a001818152505033816040019073ffffffffffffffffffffffffffffffffffffffff16908173ffffffffffffffffffffffffffffffffffffffff168152505080600a60006001548152602001908152602001600020600082015181600001556020820151816001015560408201518160020160006101000a81548173ffffffffffffffffffffffffffffffffffffffff021916908373ffffffffffffffffffffffffffffffffffffffff16021790555060608201518160030160006101000a81548173ffffffffffffffffffffffffffffffffffffffff021916908373ffffffffffffffffffffffffffffffffffffffff1602179055506080820151816004019081611b8c9190613cef565b5060a0820151816005015590505060015491505092915050565b6000600b60008481526020019081526020016000206040518060c00160405290816000820154815260200160018201805480602002602001604051908101604052809291908181526020016000905b82821015611ca1578382906000526020600020018054611c1490613b12565b80601f0160208091040260200160405190810160405280929190818152602001828054611c4090613b12565b8015611c8d5780601f10611c6257610100808354040283529160200191611c8d565b820191906000526020600020905b815481529060010190602001808311611c7057829003601f168201915b505050505081526020019060010190611bf5565b505050508152602001600282015481526020016003820160009054906101000a900460ff166002811115611cd857611cd761361e565b5b6002811115611cea57611ce961361e565b5b81526020016003820160019054906101000a900473ffffffffffffffffffffffffffffffffffffffff1673ffffffffffffffffffffffffffffffffffffffff1673ffffffffffffffffffffffffffffffffffffffff1681526020016004820160009054906101000a900473ffffffffffffffffffffffffffffffffffffffff1673ffffffffffffffffffffffffffffffffffffffff1673ffffffffffffffffffffffffffffffffffffffff16815250509050606060028303611e38576000826080015190508073ffffffffffffffffffffffffffffffffffffffff166108fc84604001519081150290604051600060405180830381858888f19350505050158015611df9573d6000803e3d6000fd5b506040518060400160405280600981526020017f43616e63656c6c65640000000000000000000000000000000000000000000000815250915050611ecf565b60018303611ece5760008260a0015190508073ffffffffffffffffffffffffffffffffffffffff166108fc84604001519081150290604051600060405180830381858888f19350505050158015611e93573d6000803e3d6000fd5b506040518060400160405280600981526020017f44656c69766572656400000000000000000000000000000000000000000000008152509150505b5b600b600085815260200190815260200160002060010181908060018154018082558091505060019003906000526020600020016000909190919091509081611f179190613cef565b50837f4687f3121d2d2f3cbf4c5b377825b06af8b3f39ba92dedb00980c611106974938242604051611f4a929190613dc1565b60405180910390a26002600b600086815260200190815260200160002060030160006101000a81548160ff02191690836002811115611f8c57611f8b61361e565b5b0217905550600280811115611fa457611fa361361e565b5b847f68c3e9c52778c2835a02025af9e7e5556aad34be5ebe4ad9cde21b8fae145b3a42604051611fd491906131a9565b60405180910390a350505050565b600b6020528060005260406000206000915090508060000154908060020154908060030160009054906101000a900460ff16908060030160019054906101000a900473ffffffffffffffffffffffffffffffffffffffff16908060040160009054906101000a900473ffffffffffffffffffffffffffffffffffffffff16905085565b600760205280600052604060002060009150905080600001549080600101805461208e90613b12565b80601f01602080910402602001604051908101604052809291908181526020018280546120ba90613b12565b80156121075780601f106120dc57610100808354040283529160200191612107565b820191906000526020600020905b8154815290600101906020018083116120ea57829003601f168201915b5050505050908060020154908060030160009054906101000a900473ffffffffffffffffffffffffffffffffffffffff169080600401549080600501805461214e90613b12565b80601f016020809104026020016040519081016040528092919081815260200182805461217a90613b12565b80156121c75780601f1061219c576101008083540402835291602001916121c7565b820191906000526020600020905b8154815290600101906020018083116121aa57829003601f168201915b5050505050905086565b6000600b600083815260200190815260200160002060030160009054906101000a900460ff169050919050565b6000600a60008581526020019081526020016000206040518060c001604052908160008201548152602001600182015481526020016002820160009054906101000a900473ffffffffffffffffffffffffffffffffffffffff1673ffffffffffffffffffffffffffffffffffffffff1673ffffffffffffffffffffffffffffffffffffffff1681526020016003820160009054906101000a900473ffffffffffffffffffffffffffffffffffffffff1673ffffffffffffffffffffffffffffffffffffffff1673ffffffffffffffffffffffffffffffffffffffff1681526020016004820180546122ee90613b12565b80601f016020809104026020016040519081016040528092919081815260200182805461231a90613b12565b80156123675780601f1061233c57610100808354040283529160200191612367565b820191906000526020600020905b81548152906001019060200180831161234a57829003601f168201915b5050505050815260200160058201548152505090508281602001818152505081816060019073ffffffffffffffffffffffffffffffffffffffff16908173ffffffffffffffffffffffffffffffffffffffff168152505080600a6000868152602001908152602001600020600082015181600001556020820151816001015560408201518160020160006101000a81548173ffffffffffffffffffffffffffffffffffffffff021916908373ffffffffffffffffffffffffffffffffffffffff16021790555060608201518160030160006101000a81548173ffffffffffffffffffffffffffffffffffffffff021916908373ffffffffffffffffffffffffffffffffffffffff16021790555060808201518160040190816124899190613cef565b5060a0820151816005015590505050505050565b60025481565b6000816040516020016124b69190613e90565b60405160208183030381529060405280519060200120836040516020016124dd9190613e90565b6040516020818303038152906040528051906020012014905092915050565b80600b6000600254815260200190815260200160002060030160006101000a81548160ff021916908360028111156125375761253661361e565b5b021790555080600281111561254f5761254e61361e565b5b827f68c3e9c52778c2835a02025af9e7e5556aad34be5ebe4ad9cde21b8fae145b3a4260405161257f91906131a9565b60405180910390a35050565b823410156125ce576040517f08c379a00000000000000000000000000000000000000000000000000000000081526004016125c590613ef3565b60405180910390fd5b6001600b600084815260200190815260200160002060030160006101000a81548160ff021916908360028111156126085761260761361e565b5b0217905550600160028111156126215761262061361e565b5b827f68c3e9c52778c2835a02025af9e7e5556aad34be5ebe4ad9cde21b8fae145b3a4260405161265191906131a9565b60405180910390a3600b6000838152602001908152602001600020600101819080600181540180825580915050600190039060005260206000200160009091909190915090816126a19190613cef565b50817f4687f3121d2d2f3cbf4c5b377825b06af8b3f39ba92dedb00980c6111069749382426040516126d4929190613dc1565b60405180910390a2505050565b6060600b6000838152602001908152602001600020600101805480602002602001604051908101604052809291908181526020016000905b828210156127c557838290600052602060002001805461273890613b12565b80601f016020809104026020016040519081016040528092919081815260200182805461276490613b12565b80156127b15780601f10612786576101008083540402835291602001916127b1565b820191906000526020600020905b81548152906001019060200180831161279457829003601f168201915b505050505081526020019060010190612719565b505050509050919050565b600080600460003373ffffffffffffffffffffffffffffffffffffffff1673ffffffffffffffffffffffffffffffffffffffff16815260200190815260200160002060000154905060008103612a62576003600081548092919061283390613a9b565b9190505550612840612ea5565b6003548160000181815250508581602001819052508481604001818152505033816060019073ffffffffffffffffffffffffffffffffffffffff16908173ffffffffffffffffffffffffffffffffffffffff168152505083816080018190525080600460003373ffffffffffffffffffffffffffffffffffffffff1673ffffffffffffffffffffffffffffffffffffffff1681526020019081526020016000206000820151816000015560208201518160010190816128ff9190613cef565b506040820151816002015560608201518160030160006101000a81548173ffffffffffffffffffffffffffffffffffffffff021916908373ffffffffffffffffffffffffffffffffffffffff16021790555060808201518160040190816129669190613cef565b509050503360056000600354815260200190815260200160002060006101000a81548173ffffffffffffffffffffffffffffffffffffffff021916908373ffffffffffffffffffffffffffffffffffffffff16021790555080600660008781526020019081526020016000206000820151816000015560208201518160010190816129f19190613cef565b506040820151816002015560608201518160030160006101000a81548173ffffffffffffffffffffffffffffffffffffffff021916908373ffffffffffffffffffffffffffffffffffffffff1602179055506080820151816004019081612a589190613cef565b5090505050612d1d565b6000600460003373ffffffffffffffffffffffffffffffffffffffff1673ffffffffffffffffffffffffffffffffffffffff1681526020019081526020016000206040518060a001604052908160008201548152602001600182018054612ac890613b12565b80601f0160208091040260200160405190810160405280929190818152602001828054612af490613b12565b8015612b415780601f10612b1657610100808354040283529160200191612b41565b820191906000526020600020905b815481529060010190602001808311612b2457829003601f168201915b50505050508152602001600282015481526020016003820160009054906101000a900473ffffffffffffffffffffffffffffffffffffffff1673ffffffffffffffffffffffffffffffffffffffff1673ffffffffffffffffffffffffffffffffffffffff168152602001600482018054612bba90613b12565b80601f0160208091040260200160405190810160405280929190818152602001828054612be690613b12565b8015612c335780601f10612c0857610100808354040283529160200191612c33565b820191906000526020600020905b815481529060010190602001808311612c1657829003601f168201915b50505050508152505090508481604001818152505083816080018190525080600460003373ffffffffffffffffffffffffffffffffffffffff1673ffffffffffffffffffffffffffffffffffffffff168152602001908152602001600020600082015181600001556020820151816001019081612cb09190613cef565b506040820151816002015560608201518160030160006101000a81548173ffffffffffffffffffffffffffffffffffffffff021916908373ffffffffffffffffffffffffffffffffffffffff1602179055506080820151816004019081612d179190613cef565b50905050505b6003549150509392505050565b6040518060c00160405280600081526020016060815260200160008152602001600073ffffffffffffffffffffffffffffffffffffffff16815260200160008152602001606081525090565b6040518060c0016040528060008152602001606081526020016000815260200160006002811115612daa57612da961361e565b5b8152602001600073ffffffffffffffffffffffffffffffffffffffff168152602001600073ffffffffffffffffffffffffffffffffffffffff1681525090565b828054828255906000526020600020908101928215612e32579160200282015b82811115612e31578251829081612e219190613cef565b5091602001919060010190612e0a565b5b509050612e3f9190612eea565b5090565b6040518060c001604052806000815260200160008152602001600073ffffffffffffffffffffffffffffffffffffffff168152602001600073ffffffffffffffffffffffffffffffffffffffff16815260200160608152602001600081525090565b6040518060a00160405280600081526020016060815260200160008152602001600073ffffffffffffffffffffffffffffffffffffffff168152602001606081525090565b5b80821115612f0a5760008181612f019190612f0e565b50600101612eeb565b5090565b508054612f1a90613b12565b6000825580601f10612f2c5750612f4b565b601f016020900490600052602060002090810190612f4a9190612f4e565b5b50565b5b80821115612f67576000816000905550600101612f4f565b5090565b6000604051905090565b600080fd5b600080fd5b600080fd5b600080fd5b6000601f19601f8301169050919050565b7f4e487b7100000000000000000000000000000000000000000000000000000000600052604160045260246000fd5b612fd282612f89565b810181811067ffffffffffffffff82111715612ff157612ff0612f9a565b5b80604052505050565b6000613004612f6b565b90506130108282612fc9565b919050565b600067ffffffffffffffff8211156130305761302f612f9a565b5b61303982612f89565b9050602081019050919050565b82818337600083830152505050565b600061306861306384613015565b612ffa565b90508281526020810184848401111561308457613083612f84565b5b61308f848285613046565b509392505050565b600082601f8301126130ac576130ab612f7f565b5b81356130bc848260208601613055565b91505092915050565b6000819050919050565b6130d8816130c5565b81146130e357600080fd5b50565b6000813590506130f5816130cf565b92915050565b6000806000806080858703121561311557613114612f75565b5b600085013567ffffffffffffffff81111561313357613132612f7a565b5b61313f87828801613097565b9450506020613150878288016130e6565b9350506040613161878288016130e6565b925050606085013567ffffffffffffffff81111561318257613181612f7a565b5b61318e87828801613097565b91505092959194509250565b6131a3816130c5565b82525050565b60006020820190506131be600083018461319a565b92915050565b600080604083850312156131db576131da612f75565b5b60006131e9858286016130e6565b925050602083013567ffffffffffffffff81111561320a57613209612f7a565b5b61321685828601613097565b9150509250929050565b60006020828403121561323657613235612f75565b5b6000613244848285016130e6565b91505092915050565b600081519050919050565b600082825260208201905092915050565b60005b8381101561328757808201518184015260208101905061326c565b60008484015250505050565b600061329e8261324d565b6132a88185613258565b93506132b8818560208601613269565b6132c181612f89565b840191505092915050565b600073ffffffffffffffffffffffffffffffffffffffff82169050919050565b60006132f7826132cc565b9050919050565b613307816132ec565b82525050565b600060a082019050613322600083018861319a565b81810360208301526133348187613293565b9050613343604083018661319a565b61335060608301856132fe565b81810360808301526133628184613293565b90509695505050505050565b613377816132ec565b811461338257600080fd5b50565b6000813590506133948161336e565b92915050565b6000602082840312156133b0576133af612f75565b5b60006133be84828501613385565b91505092915050565b600060c0820190506133dc600083018961319a565b6133e9602083018861319a565b6133f660408301876132fe565b61340360608301866132fe565b81810360808301526134158185613293565b905061342460a083018461319a565b979650505050505050565b600061343a826132cc565b9050919050565b61344a8161342f565b82525050565b600060c082019050613465600083018961319a565b81810360208301526134778188613293565b9050613486604083018761319a565b6134936060830186613441565b6134a0608083018561319a565b81810360a08301526134b28184613293565b9050979650505050505050565b60006020820190506134d460008301846132fe565b92915050565b600381106134e757600080fd5b50565b6000813590506134f9816134da565b92915050565b6000806000806080858703121561351957613518612f75565b5b6000613527878288016130e6565b945050602085013567ffffffffffffffff81111561354857613547612f7a565b5b61355487828801613097565b9350506040613565878288016130e6565b9250506060613576878288016134ea565b91505092959194509250565b6000806040838503121561359957613598612f75565b5b600083013567ffffffffffffffff8111156135b7576135b6612f7a565b5b6135c385828601613097565b92505060206135d4858286016130e6565b9150509250929050565b600080604083850312156135f5576135f4612f75565b5b6000613603858286016130e6565b9250506020613614858286016130e6565b9150509250929050565b7f4e487b7100000000000000000000000000000000000000000000000000000000600052602160045260246000fd5b6003811061365e5761365d61361e565b5b50565b600081905061366f8261364d565b919050565b600061367f82613661565b9050919050565b61368f81613674565b82525050565b600060a0820190506136aa600083018861319a565b6136b7602083018761319a565b6136c46040830186613686565b6136d160608301856132fe565b6136de60808301846132fe565b9695505050505050565b60006020820190506136fd6000830184613686565b92915050565b60008060006060848603121561371c5761371b612f75565b5b600061372a868287016130e6565b935050602061373b868287016130e6565b925050604061374c86828701613385565b9150509250925092565b6000806040838503121561376d5761376c612f75565b5b600083013567ffffffffffffffff81111561378b5761378a612f7a565b5b61379785828601613097565b925050602083013567ffffffffffffffff8111156137b8576137b7612f7a565b5b6137c485828601613097565b9150509250929050565b60008115159050919050565b6137e3816137ce565b82525050565b60006020820190506137fe60008301846137da565b92915050565b6000806040838503121561381b5761381a612f75565b5b6000613829858286016130e6565b925050602061383a858286016134ea565b9150509250929050565b60008060006060848603121561385d5761385c612f75565b5b600061386b868287016130e6565b935050602061387c868287016130e6565b925050604084013567ffffffffffffffff81111561389d5761389c612f7a565b5b6138a986828701613097565b9150509250925092565b600081519050919050565b600082825260208201905092915050565b6000819050602082019050919050565b600082825260208201905092915050565b60006138fb8261324d565b61390581856138df565b9350613915818560208601613269565b61391e81612f89565b840191505092915050565b600061393583836138f0565b905092915050565b6000602082019050919050565b6000613955826138b3565b61395f81856138be565b935083602082028501613971856138cf565b8060005b858110156139ad578484038952815161398e8582613929565b94506139998361393d565b925060208a01995050600181019050613975565b50829750879550505050505092915050565b600060208201905081810360008301526139d9818461394a565b905092915050565b6000806000606084860312156139fa576139f9612f75565b5b600084013567ffffffffffffffff811115613a1857613a17612f7a565b5b613a2486828701613097565b9350506020613a35868287016130e6565b925050604084013567ffffffffffffffff811115613a5657613a55612f7a565b5b613a6286828701613097565b9150509250925092565b7f4e487b7100000000000000000000000000000000000000000000000000000000600052601160045260246000fd5b6000613aa6826130c5565b91507fffffffffffffffffffffffffffffffffffffffffffffffffffffffffffffffff8203613ad857613ad7613a6c565b5b600182019050919050565b7f4e487b7100000000000000000000000000000000000000000000000000000000600052602260045260246000fd5b60006002820490506001821680613b2a57607f821691505b602082108103613b3d57613b3c613ae3565b5b50919050565b60008190508160005260206000209050919050565b60006020601f8301049050919050565b600082821b905092915050565b600060088302613ba57fffffffffffffffffffffffffffffffffffffffffffffffffffffffffffffffff82613b68565b613baf8683613b68565b95508019841693508086168417925050509392505050565b6000819050919050565b6000613bec613be7613be2846130c5565b613bc7565b6130c5565b9050919050565b6000819050919050565b613c0683613bd1565b613c1a613c1282613bf3565b848454613b75565b825550505050565b600090565b613c2f613c22565b613c3a818484613bfd565b505050565b5b81811015613c5e57613c53600082613c27565b600181019050613c40565b5050565b601f821115613ca357613c7481613b43565b613c7d84613b58565b81016020851015613c8c578190505b613ca0613c9885613b58565b830182613c3f565b50505b505050565b600082821c905092915050565b6000613cc660001984600802613ca8565b1980831691505092915050565b6000613cdf8383613cb5565b9150826002028217905092915050565b613cf88261324d565b67ffffffffffffffff811115613d1157613d10612f9a565b5b613d1b8254613b12565b613d26828285613c62565b600060209050601f831160018114613d595760008415613d47578287015190505b613d518582613cd3565b865550613db9565b601f198416613d6786613b43565b60005b82811015613d8f57848901518255600182019150602085019450602081019050613d6a565b86831015613dac5784890151613da8601f891682613cb5565b8355505b6001600288020188555050505b505050505050565b60006040820190508181036000830152613ddb8185613293565b9050613dea602083018461319a565b9392505050565b6000613dfc826130c5565b9150613e07836130c5565b9250828203905081811115613e1f57613e1e613a6c565b5b92915050565b7f4e487b7100000000000000000000000000000000000000000000000000000000600052603260045260246000fd5b600081905092915050565b6000613e6a8261324d565b613e748185613e54565b9350613e84818560208601613269565b80840191505092915050565b6000613e9c8284613e5f565b915081905092915050565b7f6c657373206d6f6e657900000000000000000000000000000000000000000000600082015250565b6000613edd600a83613258565b9150613ee882613ea7565b602082019050919050565b60006020820190508181036000830152613f0c81613ed0565b905091905056fea2646970667358221220f87e11504f85731f468629bc66ca3f193af00689e89d18e8e5d0e965ae9642d064736f6c63430008120033",
  "immutableReferences": {},
  "source": "// SPDX-License-Identifier: MIT\r\npragma solidity ^0.8.0;\r\npragma experimental ABIEncoderV2;\r\n\r\ncontract SupplyChain {\r\n\r\n    enum Status {Notpaid, inSc, received}\r\n    uint public userCount = 0;\r\n    uint public itemCount = 0;\r\n    uint public shipmentCount = 0;\r\n    uint256 public adminCount = 0;\r\n    \r\n    event processChange(uint indexed shipId,string shState,uint times);\r\n    event processPay(uint indexed shipId,Status indexed pay,uint times);\r\n\r\n    struct Admin {\r\n        uint256 adminId;\r\n        string adminName;\r\n        uint256 adminAadharNo;\r\n        address adminAddr;\r\n        string role;\r\n    }\r\n\r\n    mapping(address => Admin) public Admins;\r\n    mapping(uint256 => address) public AdminIds;\r\n    mapping(uint256 => Admin) public AdminAadhars;\r\n\r\n    struct User {\r\n        uint userId;\r\n        string userName;\r\n        uint aadharNo;\r\n        address payable addr;\r\n        uint pincode;\r\n        string role; \r\n    }\r\n\r\n    mapping(address  => User) public Users;\r\n    mapping(uint => User) public User_Ids;\r\n    mapping(uint => User) public User_Aadhars;   \r\n\r\n    struct Item {\r\n        uint itemId;\r\n        uint shipmentId;\r\n        address maddress;\r\n        address caddress;\r\n        string description;\r\n        uint price;\r\n    }\r\n\r\n    mapping(uint => Item) public Items;\r\n\r\n    struct Shipment{\r\n        uint shipmentId;\r\n        string[] shipmentStatus;\r\n        uint totalAmt;\r\n        Status payment;\r\n        address caddress;\r\n        address maddress;\r\n    }\r\n\r\n    mapping(uint => Shipment) public Shipments;\r\n\r\n    function addAdmin(string memory _name, uint256 _adminAadharno, string memory _role)\r\n        public\r\n        returns (uint256)\r\n    {\r\n        uint256 x = Admins[msg.sender].adminId;\r\n        if (x == 0) {\r\n            adminCount++;\r\n            Admin memory aux;\r\n            aux.adminId = adminCount;\r\n            aux.adminName = _name;\r\n            aux.adminAadharNo = _adminAadharno;\r\n            aux.adminAddr = msg.sender;\r\n            aux.role = _role;\r\n            Admins[msg.sender] = aux;\r\n            AdminIds[adminCount] = msg.sender;\r\n            AdminAadhars[_adminAadharno] = aux;\r\n        } else {\r\n            Admin memory aux = Admins[msg.sender];\r\n            aux.adminAadharNo = _adminAadharno;\r\n            aux.role = _role;\r\n            Admins[msg.sender] = aux;\r\n        }\r\n        return adminCount;\r\n    }\r\n\r\n    function addUser(string memory _name, uint _aadharNo, uint _pincode, string memory _role) public returns(uint){\r\n        address x = Users[msg.sender].addr;\r\n        if (x == address(0x0)) {\r\n            User memory aux;\r\n            userCount++;\r\n            aux.userId = userCount;\r\n            aux.userName = _name;\r\n            aux.addr = payable(msg.sender);\r\n            aux.pincode = _pincode;\r\n            aux.role = _role;\r\n            aux.aadharNo = _aadharNo;\r\n            Users[msg.sender] = aux;\r\n            User_Ids[userCount] = aux;\r\n            User_Aadhars[_aadharNo] = aux;\r\n            return userCount;\r\n        } else {\r\n            User memory aux = Users[msg.sender];\r\n            aux.userName = _name;\r\n            aux.pincode = _pincode;\r\n            aux.role = _role;\r\n            Users[msg.sender] = aux;\r\n            User_Ids[userCount] = aux;\r\n            User_Aadhars[_aadharNo] = aux;\r\n            return userCount;\r\n        }\r\n    }\r\n\r\n    function createItems(string memory _description,uint _price) public returns(uint) {\r\n        itemCount++;\r\n        Item memory aux;\r\n        aux.itemId = itemCount;\r\n        aux.description = _description;\r\n        aux.price = _price;\r\n        aux.maddress = msg.sender;\r\n        Items[itemCount] = aux;\r\n        return itemCount;\r\n    }\r\n\r\n    function updateItem(uint _itemId, uint _shipId, address _caddress) public {\r\n        Item memory aux = Items[_itemId];\r\n        aux.shipmentId = _shipId;\r\n        aux.caddress = _caddress;\r\n        Items[_itemId] = aux;\r\n    }\r\n\r\n    function createShipment(uint _itemId,string memory _shipstatus,uint _totalAmt,Status _payment)public{\r\n        shipmentCount++;\r\n        Shipment memory aux;\r\n        aux.shipmentId = shipmentCount;\r\n        aux.payment =  _payment;\r\n        aux.totalAmt =  _totalAmt;\r\n        aux.caddress = msg.sender;\r\n        Shipments[shipmentCount] = aux;\r\n        Shipments[shipmentCount].shipmentStatus.push(_shipstatus);\r\n        updateItem(_itemId, shipmentCount, msg.sender);\r\n        emit processChange(shipmentCount,_shipstatus,block.timestamp);\r\n        emit processPay(shipmentCount,_payment,block.timestamp);\r\n    }\r\n\r\n    function updateShstate(uint _shipId,string memory _shipStatus)public{\r\n       \r\n       if(compareStrings(_shipStatus,\"Cancelled\")){\r\n           Shipments[_shipId].shipmentStatus.push(_shipStatus);\r\n           emit processChange(_shipId,_shipStatus,block.timestamp);\r\n       }\r\n       uint len = Shipments[_shipId].shipmentStatus.length;\r\n       if(!(compareStrings(Shipments[_shipId].shipmentStatus[(len-1)], \"Cancelled\"))){\r\n        Shipments[_shipId].shipmentStatus.push(_shipStatus);\r\n        emit processChange(_shipId,_shipStatus,block.timestamp);\r\n       }\r\n    }\r\n    \r\n    function updateShstatus(uint _shipId,Status _payment)public{\r\n        Shipments[shipmentCount].payment=  _payment;\r\n        emit processPay(_shipId,_payment,block.timestamp);\r\n    }\r\n\r\n    function payitem(uint _totAmt,uint _shipmentId,string memory _shipStatus)public payable {\r\n        require(msg.value >= _totAmt,\"less money\");\r\n        Shipments[_shipmentId].payment = Status.inSc;\r\n        emit processPay(_shipmentId,Status.inSc,block.timestamp);\r\n        Shipments[_shipmentId].shipmentStatus.push(_shipStatus);\r\n        emit processChange(_shipmentId,_shipStatus,block.timestamp);\r\n    }\r\n\r\n    function withdrawMoney(uint _shipmentId,uint z)public payable{\r\n        Shipment memory _shipment = Shipments[_shipmentId];\r\n        // Item memory x = Items[y.itemcat];\r\n        string memory _shipStatus;\r\n        if(z == 2){\r\n            address payable customer = payable(_shipment.caddress);\r\n            customer.transfer(_shipment.totalAmt);\r\n            _shipStatus = \"Cancelled\"; \r\n        }\r\n        else if(z == 1){\r\n        address payable manufacturer = payable(_shipment.maddress);\r\n        manufacturer.transfer(_shipment.totalAmt);\r\n        _shipStatus = \"Delivered\";\r\n        }    \r\n        Shipments[_shipmentId].shipmentStatus.push(_shipStatus);\r\n        emit processChange(_shipmentId,_shipStatus,block.timestamp);\r\n        Shipments[_shipmentId].payment = Status.received;\r\n        emit processPay(_shipmentId,Status.received,block.timestamp);\r\n            \r\n    }\r\n\r\n    function compareStrings(string memory a, string memory b) public pure returns (bool) {\r\n        return (keccak256(abi.encodePacked((a))) == keccak256(abi.encodePacked((b))));\r\n    }\r\n\r\n    \r\n    function getbal(address addr)public view returns(uint){\r\n        return (addr).balance;\r\n    }\r\n    function getShipmentStatus(uint _shipid)public view returns (string[] memory){\r\n        return Shipments[_shipid].shipmentStatus;\r\n    }\r\n    function getPaymentStatus(uint _shipid)public view returns (Status){\r\n        return Shipments[_shipid].payment;\r\n    }\r\n}\r\n",
  "sourcePath": "C:\\Users\\chatt\\Desktop\\CSC\\Koraput_Coffee\\truffle\\contracts\\SupplyChain.sol",
  "compiler": {
    "name": "solc",
    "version": "0.8.18+commit.87f61d96.Emscripten.clang"
  },
  "schemaVersion": "3.4.16",
  "updatedAt": "2024-01-23T10:52:53.259Z",
  "devdoc": {
    "kind": "dev",
    "methods": {},
    "version": 1
  },
  "userdoc": {
    "kind": "user",
    "methods": {},
    "version": 1
  }
}